:020000040000fa
:080000000002040000000000f2
:020000040000fa
:04000800ec05000003
:020000040000fa
:04000c002c060000be
:020000040000fa
:040010008006000066
:020000040000fa
:0400140008060000da
:020000040000fa
:040018004806000096
:020000040000fa
:04001c006406000076
:020000040000fa
:040020009c0600003a
:020000040000fa
:040024005e05000075
:020000040000fa
:04002800640500006b
:020000040000fa
:04002c006405000067
:020000040000fa
:040030006405000063
:020000040000fa
:04003400640500005f
:020000040000fa
:04003800640500005b
:020000040000fa
:04003c006405000057
:020000040000fa
:040040006405000053
:020000040000fa
:04004400c2050000f1
:020000040000fa
:04004800640500004b
:020000040000fa
:04004c006405000047
:020000040000fa
:040050006405000043
:020000040000fa
:04005400640500003f
:020000040000fa
:04005800640500003b
:020000040000fa
:04005c00820300001b
:020000040000fa
:040060006405000033
:020000040000fa
:04006400640500002f
:020000040000fa
:04006800640500002b
:020000040000fa
:04006c006405000027
:020000040000fa
:040070006405000023
:020000040000fa
:04007400640500001f
:020000040000fa
:04007800640500001b
:020000040000fa
:04007c006405000017
:020000040000fa
:040080006405000013
:020000040000fa
:04008400640500000f
:020000040000fa
:04008800640500000b
:020000040000fa
:04008c006405000007
:020000040000fa
:040090006405000003
:020000040000fa
:0400940064050000ff
:020000040000fa
:0400980064050000fb
:020000040000fa
:04009c0064050000f7
:020000040000fa
:0400a00064050000f3
:020000040000fa
:0400a40064050000ef
:020000040000fa
:0400a80064050000eb
:020000040000fa
:0400ac0064050000e7
:020000040000fa
:0400b00064050000e3
:020000040000fa
:0400b40064050000df
:020000040000fa
:0400b80064050000db
:020000040000fa
:0400bc0064050000d7
:020000040000fa
:0400c00064050000d3
:020000040000fa
:0400c40064050000cf
:020000040000fa
:0400c80064050000cb
:020000040000fa
:0400cc0064050000c7
:020000040000fa
:0400d00064050000c3
:020000040000fa
:0400d40064050000bf
:020000040000fa
:0400d80064050000bb
:020000040000fa
:0400dc0064050000b7
:020000040000fa
:0400e00064050000b3
:020000040000fa
:0400e40064050000af
:020000040000fa
:0400e80064050000ab
:020000040000fa
:0400ec0064050000a7
:020000040000fa
:0400f00064050000a3
:020000040000fa
:0400f400640500009f
:020000040000fa
:0400f800640500009b
:020000040000fa
:0400fc006405000097
:020000040000fa
:040100006405000092
:020000040000fa
:04010400640500008e
:020000040000fa
:04010800640500008a
:020000040000fa
:04010c006e0500007c
:020000040000fa
:040110006405000082
:020000040000fa
:04011400640500007e
:020000040000fa
:04011800640500007a
:020000040000fa
:04011c006405000076
:020000040000fa
:040120006405000072
:020000040000fa
:04012400640500006e
:020000040000fa
:04012800640500006a
:020000040000fa
:04012c006405000066
:020000040000fa
:040130006405000062
:020000040000fa
:04013400640500005e
:020000040000fa
:04013800640500005a
:020000040000fa
:04013c006405000056
:020000040000fa
:040140006405000052
:020000040000fa
:04014400640500004e
:020000040000fa
:04014800640500004a
:020000040000fa
:04014c006405000046
:020000040000fa
:040150006405000042
:020000040000fa
:04015400640500003e
:020000040000fa
:04015800640500003a
:020000040000fa
:04015c006405000036
:020000040000fa
:040160006405000032
:020000040000fa
:04016400640500002e
:020000040000fa
:04016800640500002a
:020000040000fa
:04016c006405000026
:020000040000fa
:040170006405000022
:020000040000fa
:04017400640500001e
:020000040000fa
:04017800640500001a
:020000040000fa
:04017c006405000016
:020000040000fa
:040180006405000012
:020000040000fa
:04018400640500000e
:020000040000fa
:04018800640500000a
:020000040000fa
:04018c006405000006
:020000040000fa
:040190006405000002
:020000040000fa
:0401940064050000fe
:020000040000fa
:0401980064050000fa
:020000040000fa
:04019c0064050000f6
:020000040000fa
:0401a00064050000f2
:020000040000fa
:0401a40064050000ee
:020000040000fa
:0401a80064050000ea
:020000040000fa
:0401ac0064050000e6
:020000040000fa
:0401b00064050000e2
:020000040000fa
:0401b40064050000de
:020000040000fa
:0401b80064050000da
:020000040000fa
:0401bc0064050000d6
:020000040000fa
:0401c00064050000d2
:020000040000fa
:0401c40064050000ce
:020000040000fa
:0401c80064050000ca
:020000040000fa
:0401cc0064050000c6
:020000040000fa
:0401d00064050000c2
:020000040000fa
:0401d40064050000be
:020000040000fa
:0401d80064050000ba
:020000040000fa
:0401dc0064050000b6
:020000040000fa
:0401e00064050000b2
:020000040000fa
:0401e40064050000ae
:020000040000fa
:0401e80064050000aa
:020000040000fa
:0401ec0064050000a6
:020000040000fa
:0401f00064050000a2
:020000040000fa
:0401f400640500009e
:020000040000fa
:0401f800640500009a
:020000040000fa
:0401fc006405000096
:020000040000fa
:040200006405000091
:020000040000fa
:04020400640500008d
:020000040000fa
:040208006405000089
:020000040000fa
:04020c006405000085
:020000040000fa
:040210006405000081
:020000040000fa
:04021400640500007d
:020000040000fa
:040218006405000079
:020000040000fa
:04021c006405000075
:020000040000fa
:040220006405000071
:020000040000fa
:04022400640500006d
:020000040000fa
:040228006405000069
:020000040000fa
:04022c006405000065
:020000040000fa
:040230006405000061
:020000040000fa
:04023400640500005d
:020000040000fa
:040238006405000059
:020000040000fa
:04023c006405000055
:020000040000fa
:040240006405000051
:020000040000fa
:04024400640500004d
:020000040000fa
:040248006405000049
:020000040000fa
:04024c006405000045
:020000040000fa
:040250006405000041
:020000040000fa
:04025400640500003d
:020000040000fa
:040258006405000039
:020000040000fa
:04025c006405000035
:020000040000fa
:040260006405000031
:020000040000fa
:04026400640500002d
:020000040000fa
:040268006405000029
:020000040000fa
:04026c006405000025
:020000040000fa
:040270006405000021
:020000040000fa
:04027400640500001d
:020000040000fa
:040278006405000019
:020000040000fa
:04027c006405000015
:020000040000fa
:040280006405000011
:020000040000fa
:100400000fb022000eff27000e0188000000000040
:10041000000020000000e000020032000001200087
:100420002002880014000700530207000000e000cb
:1004300003003a00004a23000100200002003700b8
:100440000000200001002000810f70000100320038
:100450000f000700000020000000e0000200320052
:100460000000020000000000d44f02000000000065
:100470000040da000000fe00400320000000e00021
:1004800002003200002020009001880000000600d9
:10049000a1028800800478000000eb001f003700f4
:1004a000e284440054a0b4009905ba00e2844400f8
:1004b00054a0b4009906ba00e284440054a0b400e9
:1004c0000006eb00476fde00fd07b200ae018800ba
:1004d000636ce10003003a000ad801000000eb0061
:1004e0000e003700606ce10008003a00004deb00a0
:1004f0000a05e800020039003420ec000af0a000f0
:100500008b05e900f9ff3e00040037006168e10057
:10051000010032000086eb000b00070019c7ba008b
:100520000e04e0001905ba0003003a000a00e000da
:10053000dbff3a0000000600fe07b200ae028800b2
:100540008a047800f5ff37000cd0a300e20f4d00bd
:100550001c003b0089027800354dba000a05e8000e
:10056000020039003420ec000af0a0008b05e900fd
:100570000f003200254dba000a05e80002003900dc
:100580003420ec000af0a0008b05e90008003200de
:100590000c00e0000600320015cdba000a05e800a4
:1005a000020039003420ec000af0a0008b05e900bd
:1005b0008984e80054a0b4000b00e000e2ff3a0098
:1005c000000006009902ba00055d78008b05e9007d
:1005d000f7ff3200c82ade00055d78008b05e900d0
:1005e000f3ff32000c00e000f1ff320019ddba0029
:1005f000eeff37002e5004000000000032500400cf
:100600000000000036500400000000003a500400d2
:100610000000000058500400000000005a50040080
:1006200000000000984f0400000000008c4304000c
:100630000000000092430400000000009643040004
:10064000000000009a43040000000000283004006d
:1006500000000000322f040000000000a42f04005e
:1006600000000000f2300400000000004e240400ee
:10067000000000004424040000000000c64b0400f9
:1006800000000000c84b040000000000ca4b04003a
:1006900000000000cc4b040000000000ce4b040022
:1006a00000000000d04b040000000000d21e040037
:1006b00000000000e01e040000000000f62304001b
:1006c0000000000056230400000000000e2104007a
:1006d0000000000078220400000000006a0c040002
:1006e00000000000ee0b040000000000b60f040044
:1006f000000000006a10040000000000441804001c
:10070000000000003600f800809fbe00829fbe00ff
:10071000849fbe00869fbe00889fbe003200f80006
:100720003400f80010002000a00188000020200004
:1007300000d0fe005c260700350ea80057260700f3
:10074000103f890000512200500a070001a8a900ab
:10075000206e220008260700007b2200742107007b
:10076000f0702200dc11e30002003e00dc31ec00fe
:100770000060fe00db230700408522004229810043
:10078000218522001193b90030024300a0824b0062
:100790000403be00838522001302780011a2b90071
:1007a0000402530085825b000488be00412bdd00fb
:1007b0004f20de000000730080097800604289004d
:1007c0000291b900020141008381490003007800d1
:1007d00000f0a7000080ea003429810004a2b900db
:1007e0000402420085824a000501780002f0a70059
:1007f0000281ea000001410072428900c1852200a5
:10080000a38522001394b90031024400a1824c0058
:100810000404be0004862200140178001393b9007a
:100820000601540087815c008288be00c11add0089
:100830004f10de0000807200000a780080428900bc
:10084000e08222001004e00080003a00503781006e
:10085000713d81000128a300020032006284220061
:100860001200a0000118a3000200320062842200de
:100870001210a0000108a3000200320061842200cf
:100880001120a000316f22001104e0000a003200a4
:100890000000e00008003200f20f500006003200b5
:1008a000f30f500004003200f40f50000200320039
:1008b000608422001030a000818422006084220025
:1008c0001181ea00100861008008eb001000e000d0
:1008d00003003a0011c0b300306e220001487800d6
:1008e000f08222001004e0000500320011c0b300c5
:1008f000206e220001487800f08222000048eb00c0
:10090000008322001004e000050032000040eb00ec
:10091000216e220080487800018322008048780000
:1009200091418100a0418100808f50000d00320074
:10093000a14181000080eb000100e00001003500d2
:100940001000200030378900a041810091418100d2
:100950000080680003003b00406e22001040a200af
:100960001050a000408322001003780096418900b7
:10097000c14181001000780000f0a7000000ea00eb
:1009800000f0a7000080ea0032378100810f50009c
:1009900001003d00010078008280b900f033890039
:1009a000f136810040002000808f50001a00320094
:1009b0000d003e0010002000808f50001600320015
:1009c00040002000e18f500013003900200020007b
:1009d000808f50001000320030002000808f5000c7
:1009e0000c003a000c00370060002000808f50009f
:1009f0000900320050002000e68f50000600390048
:100a000060002000e78f500003003200e88f5000a4
:100a1000010032006000200050428900e033810074
:100a200020428900d13381001142890014438100a2
:100a30000442890065428100f541890086428100b7
:100a4000e6418900702f8100b04189006143810037
:100a5000601a2d00808f500005003a00504381003d
:100a60000018a3000200320000000000feff370063
:100a70008a250700287e2200017f22009808500066
:100a80008025070085250700217f22009808500057
:100a9000350ea900852507003400f9003200f90061
:100aa0004f04be004f03be004f02be004f01be0008
:100ab0004f00be003600f900004006003600f80086
:100ac00080002000632507003600f800c8c8bf007a
:100ad0000080fb000010b0005e2507003600f80023
:100ae000809fbe00829fbe00849fbe00869fbe0086
:100af000108f80000000e0000100320000000100c3
:100b00000728a9004f03be004f02be004f01be00e0
:100b10004f00be003600f900004006003600f80025
:100b2000809fbe00829fbe00849fbe00869fbe0045
:100b30003200f8003400f80010002000a001880006
:100b40000020200000d0fe0001a8ab00050032000c
:100b5000208f80000000e000010032000000010052
:100b600001a8a9003400f9003200f9004f03be00cb
:100b70004f02be004f01be004f00be003600f9001c
:100b8000004006003600f800809fbe00829fbe0035
:100b9000849fbe00869fbe00308f80000000e00072
:100ba0000100320000000100908c22001048e80093
:100bb00011c0b300808c22000148780000e8a90031
:100bc0004f03be004f02be004f01be004f00be00eb
:100bd0003600f900004006003600f800809fbe0095
:100be000829fbe00849fbe00869fbe00c028a900d1
:100bf0000000eb00572107004f03be004f02be006c
:100c00004f01be004f00be003600f9000040060054
:100c10003600f800809fbe00829fbe00849fbe0009
:100c2000869fbe00a08722008007780020892200ce
:100c300000018800c048a9001000200045210700dd
:100c40004f03be004f02be004f01be004f00be006a
:100c50003600f900004006003600f800809fbe0014
:100c6000829fbe00849fbe00869fbe00c068a90010
:100c700020002000372107004f03be004f02be00b6
:100c80004f01be004f00be003600f90000400600d4
:100c90003600f800809fbe00829fbe00849fbe0089
:100ca000869fbe00c088a9003000200029210700cf
:100cb0004f03be004f02be004f01be004f00be00fa
:100cc0003600f900004006003600f800809fbe00a4
:100cd000829fbe00849fbe00869fbe00c0a8a90060
:100ce000400020001b2107004f03be004f02be0042
:100cf0004f01be004f00be003600f9000040060064
:100d00003600f800809fbe00829fbe00849fbe0018
:100d1000869fbe00c608a900700020000d210700b4
:100d20004f03be004f02be004f01be004f00be0089
:100d30003600f900004006003600f800809fbe0033
:100d4000829fbe00849fbe00869fbe00c4a8ab00e9
:100d500003003200c4a8a90090002000fd20070075
:100d6000c488ab0003003200c488a900a0002000a2
:100d7000f8200700ffff3700000005008f1fd1009b
:100d80000f0007008f87e9000000e0000000060068
:100d9000809feb000a0007008f87e9000000e00059
:100da000000006001400200040003700f4ff2f0070
:100db0003e003700600007000400be00000006008f
:100dc000889fbe008a9fbe008c9fbe000404be00a8
:100dd0000605be00809fbe00829fbe002100070066
:100de000040678000800be000a01be001d000700ce
:100df000840678004f03be004f02be008d4f760080
:100e00007fb0970013003300f0ff2f008b8f6b0033
:100e100006003b000d0666000c00a7000a00370024
:100e200007f0a600100020000a003700880f5200cb
:100e3000898f5a008a0f5b008b8f5b00030039009b
:100e40001000200001003e000000200007f0a70075
:100e50000000ea004f06be004f05be004f04be0072
:100e60000000060005ff2700058261000700320030
:100e70000428e100010032002400050006000700fc
:100e800001003a00440005000408050002000700c4
:100e9000f9ff3a00140005006f82610081027000c2
:100ea000850271008502720000000600889fbe0066
:100eb0008a9fbe00841f7800170007004f0078004b
:100ec00011003300f0ff2f00838f6c0006003b0001
:100ed000040565000a00a7000800370009f0a60015
:100ee0001000200008003700820f5400838f5c0040
:100ef000030039001000200001003e000000200027
:100f000009f0a7000000ea004f05be004f04be0034
:100f10000000e000000006000004be00160007000c
:100f20000003be000405be000200be001200070060
:100f3000844f7500000006006022b8000602200001
:100f40000000d0008180d2000482d2008582d200cd
:100f50000000a0000202520083825a000300310008
:100f60000202420083824a000000a1000603e90059
:100f7000f3ff3a0000000600c70ade00f107b200e6
:100f8000f50fb20008003200e1cf4200020032004b
:100f90000170a00024000500810f700001003200e4
:100fa0000408050044000500810f700002003a00ab
:100fb000140005008502e9000000400081c04800df
:0c0fc000fcff3b000170a00024000500b5
:020000040000fa
:100fcc00ffff00006a0c0000ee0b0000b60f0000e3
:100fdc006a1000004418000000000000000000002f
:100fec0000000000000000000000000000000000f5
:100ffc00010000001c1100000000000000000000b7
:10100c0044650000632000003138000020320000ed
:10101c003031000039310000303a00003334000028
:08102c003a310000320000001f
:020000040000fa
:101034001800fa00889fbe008a9fbe008c1f7800ab
:1010440000067800f4af9f0085b79f0096b79f0015
:10105400a7b79f002c709000ef4060000068a300c9
:101064000b003200e4cf50003b003200e8cf5000c8
:101074004e0032000046eb000c4078004f0678002a
:101084004f05be004f04be000080fa0000000600b9
:101094000058a30018003200e2cf5000670032006d
:1010a4008c003e00e1cf5000f2ff3a008c699000c2
:1010b4000c6090006fda97003c299000e10f51001a
:1010c400250132000046eb0080cf5100eaff3400d6
:1010d40001467800844f5000e6ff35000c4078004c
:1010e4004f0678004f05be004f04be000080fa0092
:1010f40000000600e6ff3700e2cf50006200320035
:10110400a6003e00e1cf5000daff3a008c6990005f
:101114000c6090006fda97003c299000e10f5100b9
:10112400000132000046eb0080cf5100d2ff3600b0
:1011340001467800844f5000ceff39000c407800ff
:101144004f0678004f05be004f04be000080fa0031
:1011540000000600ceff37004c109000dc10900019
:101164000c1490009c1490007fad97008fb59700ed
:101174003c2e9000e10f5600870132000801be00aa
:1011840009ff07000000e000baff34001cc0b300f0
:101194000801be000a00be0001ff07000000e000d5
:1011a400b5ff34000046eb00b3ff37004c1090004d
:1011b400dc1090006c119000fc1190000c14900055
:1011c4009c1490002c159000bc1590007faa9700e9
:1011d4008fb297001fb39700afb39700b4b79f00c7
:1011e400c5b79f00d6b79f00e7b79f003c2e90007d
:1011f400e10f5600530132000802be000a03be008c
:10120400e2fe07000000e0009aff34001cc0b300b7
:101214000802be000a03be003fb09700cfb097009b
:101224005fb19700efb19700d3fe07000000e00024
:1012340091ff34000046eb008fff37004c11900003
:101244000c109000ffa99700bc289000e18f50007b
:10125400db0032000046eb00800f510086ff3400b3
:101264001cc0b300830f500082ff35000c4078008f
:101274004f0678004f05be004f04be000080fa0000
:101284000000060082ff37004c1190000c10900003
:10129400ffa99700bc289000e18f5000bb003200ea
:1012a4000046eb00800f510073ff36001cc0b300f2
:1012b400830f50006fff39000c4078004f06780010
:1012c4004f05be004f04be000080fa000000060077
:1012d4006fff3700e4cf50007a003200e8cf5000af
:1012e40064ff3a004c149000dc1490006c159000dc
:1012f400fc159000f8b79f0089bf9f009abf9f001c
:10130400abbf9f000c1090009c1090002c1190001b
:10131400bc119000b4b79f00c5b79f00d6b79f001b
:10132400e7b79f00bc2a9000e18f5200ea00320028
:101334000046eb007fb497008fbc97001fbd970059
:10134400afbd97000040e10001c8e10002d0e10018
:1013540003d8e10048ff34001cc0b3003fb297003b
:10136400cfb297005fb39700efb397000400e1009a
:101374000588e1000690e1000798e1003dff350093
:101384000c4078004f0678004f05be004f04be00a5
:101394000080fa00000006003dff3700e4cf500053
:1013a40030003200e8cf500032ff3a004c14900075
:1013b400dc1490006c159000fc159000f8b79f00a9
:1013c40089bf9f009abf9f00abbf9f000c10900085
:1013d4009c1090002c119000bc119000b4b79f0099
:1013e400c5b79f00d6b79f00e7b79f00bc2a9000ff
:1013f400e18f52009d0032000046eb007fb497005d
:101404008fbc97001fbd9700afbd97000040e1005f
:1014140001c8e10002d0e10003d8e10016ff360064
:101424001cc0b3003fb29700cfb297005fb39700e0
:10143400efb397000400e1000588e1000690e100a5
:101444000798e1000bff39000c4078004f06780044
:101454004f05be004f04be000080fa0000000600e5
:101464000bff37004c129000dc1290000c1090001f
:101474009c1090007fab97008fb397003c2990009d
:10148400e10f51006a0032000046eb00800f520069
:10149400818f5a00f8fe36001cc0b300860f50003e
:1014a400878f5800f3fe39000c4078004f0678000f
:1014b4004f05be004f04be000080fa000000060085
:1014c400f3fe37004c129000dc1290000c109000d8
:1014d4009c1090007fab97008fb397003c2990003d
:1014e400e10f5100430032000046eb00800f520030
:1014f400818f5a00e0fe34001cc0b300860f5000f8
:10150400878f5800dbfe35000c4078004f067800ca
:101514004f05be004f04be000080fa000000060024
:10152400dbfe37000046eb0080cf5100d2fe3100d5
:1015340002467800844f5000cefe3e000c407800f6
:101544004f0678004f05be004f04be000080fa002d
:1015540000000600cefe37000046eb0080cf5100ad
:10156400c5fe3d0002467800844f5000c1fe3c0099
:101574000c4078004f0678004f05be004f04be00b3
:101584000080fa0000000600c1fe37000046eb00b0
:10159400800f5100b8fe310001467800830f5000df
:1015a400b4fe3e000c4078004f0678004f05be00a4
:1015b4004f04be000080fa0000000600b4fe3700ad
:1015c4000046eb00800f5100abfe3d000146780061
:1015d400830f5000a7fe3c000c4078004f067800b3
:1015e4004f05be004f04be000080fa000000060054
:1015f400a7fe37000046eb00800f5200818f5a008f
:101604009dfe3d0002467800860f5000878f5800eb
:1016140098fe3c000c4078004f0678004f05be0051
:101624004f04be000080fa000000060098fe370058
:101634000046eb00800f5200818f5a008efe31006d
:1016440002467800860f5000878f580089fe3e00be
:101654000c4078004f0678004f05be004f04be00d2
:101664000080fa000000060089fe37000046eb0007
:101674007fb497008fbc97001fbd9700afbd970044
:101684000040e10001c8e10002d0e10003d8e1001c
:1016940079fe3100054678003fb29700cfb297003b
:1016a4005fb39700efb397000400e1000588e10001
:1016b4000690e1000798e1006efe3e000c407800c1
:1016c4004f0678004f05be004f04be000080fa00ac
:1016d400000006006efe37000046eb007fb4970062
:1016e4008fbc97001fbd9700afbd97000040e1007d
:1016f40001c8e10002d0e10003d8e1005efe3d0034
:10170400054678003fb29700cfb297005fb39700c9
:10171400efb397000400e1000588e1000690e100c2
:101724000798e10053fe3c000c4078004f06780017
:101734004f05be004f04be000080fa000000060002
:1017440053fe37000802be000a03be008afd0700ec
:101754000000e00047fe3d000802be000a03be0090
:101764003fb09700cfb097005fb19700efb19700fb
:1017740086fd07000000e0003efe35000c407800c6
:101784004f0678004f05be004f04be000080fa00eb
:10179400000006003efe37000801be0080fd070081
:1017a4000000e00033fe3d000801be000a00be0058
:1017b4007dfd07000000e0002efe35000c4078009f
:1017c4004f0678004f05be004f04be000080fa00ab
:1017d400000006002efe3700889fbe008a9fbe00d0
:1017e4000088eb008001eb00130098000042eb003e
:1017f4002350980023009800345098003300980038
:1018040044509800430098005450980053009800a6
:101814006450980063009800745098007300980016
:101824000458980003089800145898005108980028
:101834006044b8006055b80008109800191098006a
:101844002a1098003b1098004810980059109800ee
:101854006a1098007b109800031898002470980070
:10186400231898006033b800361898004718980079
:1018740024789800347898006318980073189800b6
:101884000320980024c09800262098003720980050
:10189400462098005720980044c898007620980065
:1018a4000728980012289800232898001100200087
:1018b400312898006208980073089800418f8000ce
:1018c400c00898004f05be004f04be00000006008b
:1018d4000800fa00889fbe008a9fbe008c1f780013
:1018e400000678002c189000e60f500019003e0006
:1018f400e50f5000370039008c1890002c709000d0
:101904006f406000e24f50008b01320034013e0012
:10191400e14f5000550132007fb297008fba970013
:101924001fbb9700afbb97000c007800c0fd0700f9
:101934000004e0001c01320040002000201e98003a
:101944004f0678004f05be004f04be000080fa0029
:1019540000000600e70f500085003200e80f500039
:10196400f7ff3a007c189000ec1890000001e800a2
:10197400721e9800810f5000f1ff39000000eb0047
:10198400701e98002c7890000080fb008000eb0013
:101994004c219000dc21900000004100818049002e
:1019a4004026980051269800e00f5000e08f580020
:1019b400e3ff350020002000201e98004f06780029
:1019c4004f05be004f04be000080fa000000060070
:1019d400e0ff3700e20f5000a6003200e40f500091
:1019e400db003200e10f5000d5ff3a007c18900074
:1019f400ec1890000001e800721e9800810f50005e
:101a04002e0039000000eb00701e98003c19900075
:101a1400cc1990002c7a90000482fb008002eb0029
:101a240004024100858249006c089000fc08900083
:101a3400800f5200818f5a00030036006011b800f5
:101a4400321e9800431e98008043eb008782fb00ff
:101a54000040eb000503e800f28242000603430065
:101a64000603460085024600dc08900082804000a0
:101a74000082fb0016024200944878006101410094
:101a8400e0814900321e9800431e98000040e8009f
:101a9400954f5000f4ff39008743e8003c789000ec
:101aa40080cf5300e9ff39007c2090008c289000ff
:101ab400820f5000838f5800e90036008c18900084
:101ac4002c7090006f406000e24f50002201320001
:101ad400d0003e00e14f5000f90032000802be0081
:101ae4000a03be000c00780051fd07000004e0006a
:101af400a30032004cc890000004e000a0003200b3
:101b04002c209000bc209000e00f5000e08f580083
:101b1400f00035003c189000cc189000e00f500005
:101b2400e08f5800f80032007c1990000200e000b9
:101b3400fc003a002c7990000281fb008001eb004c
:101b440002005000838058004026980051269800d7
:101b540070002000201e98004f0678004f05be003c
:101b64004f04be000080fa000000060079ff370031
:101b74007c189000ec1890000001e800721e980098
:101b8400810f50006eff39000000eb00701e9800ba
:101b94003c199000cc1990002c7a90000482fb0030
:101ba4008002eb0004024100858249006c08900029
:101bb400fc089000800f5200818f5a000400360008
:101bc4006033b800361e9800471e98006011b800b4
:101bd4008043eb008782fb000040eb000503e80034
:101be400f2824200060343000603460085024600d3
:101bf400dc089000828040000082fb001602420054
:101c04009448780061014100e0814900321e980047
:101c1400431e98000040e800954f5000f4ff39003f
:101c24008743e8003c78900080cf5300e9ff3900f7
:101c34004c209000dc209000020150008381580069
:101c44002c209000bc209000800f5100818f5900ff
:101c540079003e000000eb00201e98004f0678003b
:101c64004f05be004f04be000080fa0000000600cd
:101c740038ff37007c189000ec1890000001e80051
:101c8400721e9800810f5000280039000000eb00fc
:101c9400701e98003c199000cc1990008043eb0012
:101ca4008782fb000040eb000503e800f28242005b
:101cb400060343000603460085024600dc08900044
:101cc400828040000082fb001602420094487800a3
:101cd40061014100e0814900321e9800431e9800d2
:101ce4000040e800954f5000f4ff39008743e800b6
:101cf4003c78900080cf5300e9ff39002c789000a5
:101d04000080fb008000eb0002014000838148005a
:101d14006c089000fc089000800f5100818f5900de
:101d2400020036000000eb00201e98000c209000fa
:101d34000000e800002698004f0678004f05be001a
:101d44004f04be000080fa000000060001ff3700c7
:101d54000c2090000000e800002698007c189000f9
:101d64000000e800701e98004f0678004f05be0082
:101d74004f04be000080fa0000000600f5fe3700a4
:101d840048169800591698006a1698007b16980011
:101d94004f0678004f05be004f04be000080fa00d5
:101da40000000600ebfe37007fb097008fb8970065
:101db4001fb99700afb997004016980051169800c4
:101dc40062169800731698004f0678004f05be00ff
:101dd4004f04be000080fa0000000600ddfe37005c
:101de400e44f50002a003200e84f5000cafe3a0087
:101df400110278009102900021039000b103900039
:101e0400f4b79f0085bf9f0096bf9f00a7bf9f00a8
:101e1400c1fe3700e44f500025003200e84f500067
:101e24002eff3a00110478009104900021059000df
:101e3400b105900029ff37001c2a9000ac2a9000bd
:101e44000201420083814a00820f5000838f5800b0
:101e5400bbfe39000000eb00201e98007fff370016
:101e640010c0b30040ce980014ff37001140780032
:101e74000082fb008002eb006033b800f4b79f00df
:101e840085bf9f0096bf9f00a7bf9f00a2fe37009b
:101e940011027800910290006033b800f4b79f00fb
:101ea40085bf9f0096bf9f00a7bf9f009afe370083
:101eb40011047800910490006055b80007ff3700c2
:101ec400114478000884fb008004eb006055b800de
:101ed40002ff370040269800512698006022b8007f
:101ee400341e9800451e980080002000201e980093
:101ef4004f0678004f05be004f04be000080fa0074
:101f04000000060093fe37002c7890000080fb0050
:101f14008000eb001c299000ac29900000005100c7
:101f240081805900402698005126980070002000b6
:101f3400201e980008ff3700110078006102b800e5
:101f44006033b800f4b79f0085bf9f0096bf9f0021
:101f5400a7bf9f0070fe3700110478008004eb00d7
:101f64006055b800ddfe370040719000824878006b
:101f7400307a90009440980040799000a2409800f4
:101f8400507a9000b440980060719000c24098006c
:101f940030199000c0199000481add004811de0085
:101fa40002017200c819de00d24098000079900046
:101fb400e2409800107a9000f44098002059900074
:101fc4008248980050099000cf91de00481add0045
:101fd4004811de0002017200c819de009248980020
:101fe40050099000cf91de00a3489800500990005a
:101ff400cf91de004819de00b248980040c190003d
:10200400c248980020219000b0219000481add00b9
:102014004811de0002017200d248980060c19000ad
:10202400e248980070c29000f448980000c99000fb
:102034008250980040219000d0219000481add0081
:102044004811de00020172009250980020c99000ed
:10205400a250980030ca9000b450980020d190004b
:10206400c250980010299000a0299000481add0061
:102074004811de0002017200c819de00d250980037
:1020840040d19000e250980050d29000f450980053
:10209400405990008258980060099000f00990001f
:1020a400481add004811de0002017200c819de0082
:1020b4009258980060599000a25898007058900067
:1020c400b058980020c8b300c0589800d00105004b
:1020d4006f02b000889fbe008a9fbe008c9fbe0026
:1020e4008e1f78000004be00824678001ac0b30038
:1020f400e3cf5600c5003600090678005c4078003e
:10210400e84f5000c1003e000004e000bf00320070
:102114008000eb00211c98000040eb00317c98000b
:10212400012498006011b800321c9800431c9800e8
:10213400394190004811dd00a94090008180fb00e6
:1021440081004100611c9800711c98006022b80055
:102154006033b8004414980055149800661498002d
:1021640077149800207c980021c0b30021c4980003
:1021740040cc98006022b80044249800552498006c
:102184001c04e000aa0232004ac0b3008045780073
:102194000c077800ede79f000a46e8000a80fb0080
:1021a4000080440010407800e14f5000df0032000e
:1021b4009d0031008b86fb000c86fb000d00e800bf
:1021c40000004000000044000c8644008c00e8003d
:1021d4001181fb008001eb00481add00c812de000b
:1021e400850272004812dd001c81fb008001eb00b7
:1021f400020842004c4090008d064400a05698000e
:102204002879900002414000227c9800a8c09000e8
:1022140000c0400020c49800680e9000f80e9000a2
:102224000281fb008001eb000c00be00e0fa070015
:102234000000560081805e00102c9800212c98002c
:10224400664545008b45e8009ecf1500d2ff3e0051
:102254000e067800efe697008a80fb000a45e80046
:102264000a80fb008a45e8008180440091407800a0
:10227400e1ef9f0021749800008044001040780032
:10228400e14f50008a023200760131000b82fb00dc
:10229400048244000400e8001081fb008001eb008c
:1022a400481bdd00c813de00870373004813dd00fc
:1022b4000480e8001081fb008001eb00c011dd0008
:1022c4000200200006034100878349001481fb00bb
:1022d4008001eb000601410087814900021c98003f
:1022e4006feb970064c74500ef456300e2cf5500ec
:1022f4008d023200a4013e00e1cf55004e003a00a9
:102304008e81fb0083814400134278000482fb0029
:102314008002eb006033b800041498001514980090
:102324002614980037149800efea97000504e0009b
:1023340093013500854078000154a0002174980071
:10234400644547008a80fb00818044000100e80066
:102354001081fb008001eb00481add00c812de008a
:10236400850272004812dd000180e8001081fb0044
:102374008001eb00c011dd000200200004014100d7
:10238400858149001182fb008002eb0002014200ba
:1023940083814a00e38040001180fb008000eb0051
:1023a400c800dd00000020000200400083804800d7
:1023b4002024980031249800b81507007024980050
:1023c400012c9800644045000080fb00008044001c
:1023d4001080fb00302c9800654545008acf5600dc
:1023e400400136000a80fb000080440016c0b300a0
:1023f400904f1300720032001c4678003c7c980019
:102404001980fb00201c98000045eb000a4078006e
:102414004f0778004f06be004f05be004f04be00b4
:102424006f02b10000000600e24f500025003200a8
:10243400e34f5000090032001ac0b3000a4078008c
:102444004f0778004f06be004f05be004f04be0084
:102454006f02b10000000600f3ff37000c86fb009a
:102464000c864400ac409000bc419000408f80003a
:10247400100178000200e000efff3200c819dd000f
:102484008180fb008181410092007800818f51009e
:10249400720032000100e000e7ff320064004100f6
:1024a4000001780090007800818f51006b003200a9
:1024b400640040000100e000f9ff3a001ac0b300d4
:1024c400deff37000c86fb000c864400ac40900015
:1024d400bc419000408f8000100178000200e000b1
:1024e400d5ff3200c819dd008180fb0081814100e5
:1024f40092007800818f5100b80032000100e000a2
:10250400cdff3200640041000001780090007800a3
:10251400818f5100b1003200640040000100e000ee
:10252400f9ff3a001ac0b300c4ff37000c86fb0061
:102534000c8644008c007800b14178001142780088
:10254400ac4090003c439000428f8000920278009f
:102554000500e00008003a00004078004f077800ca
:102564004f06be004f05be004f04be006f02b1000f
:1025740000000600acff37004833dd008180fb001b
:102584000103430095007800810f53005500320089
:102594000100e000f0ff3200648042008002780015
:1025a40090007800810f53004e0032006400400018
:1025b4000100e000f9ff3a001ac0b3009fff3700a2
:1025c40088189000287090006f406000e24f50001f
:1025d4008c02320076023e00864f50000e0032001c
:1025e4007fa097008fa897001fa99700afa9970015
:1025f40040149800511498006214980073149800c1
:102604001c4678003c7c98001980fb00201c980034
:102614000045eb007dff3700114078000082fb008d
:102624008002eb006033b800f4a79f0085af9f00e1
:1026340096af9f00a7af9f007fa097008fa8970039
:102644001fa99700afa9970040149800511498004f
:102654006214980073149800e9ff37000100e00049
:1026640075ff3200920090000100e00072ff32001a
:102674008b86fb000d00e8000000400000004400d1
:10268400110878004c4090008d064400a056980034
:102694002879900002414000227c9800a8c0900054
:1026a40000c0400020c49800680e9000f80e90000e
:1026b4000281fb008001eb000c00be00bcf90700a6
:1026c4000000560081805e00102c9800212c980098
:1026d400664545008b45e8009ecf1500aefe3e00e2
:1026e400dbfe37000100e00053ff320015009000cc
:1026f4000000e00050ff32001003780092029000c6
:1027040015017800820f53000c0032000200e00033
:1027140049ff3200ec804200810278001101780008
:10272400820f530005003200ec8040000200e000fc
:10273400f9ff3a001ac0b30040ff37000200e0007e
:102744003dff32000500e0003bff32008b86fb00ba
:10275400c820dd008381fb00838040005501900088
:10276400020001008d00e8008180400081004400e7
:10277400800878000000e0002fff32004c409000f9
:102784008d064400a056980028799000024140002c
:10279400227c9800a8c0900000c0400020c498008b
:1027a400680e9000f80e90000281fb008001eb009f
:1027b4000c00be007ef907000000560081805e0018
:1027c400102c9800212c9800664545008b45e800a4
:1027d4009ecf150070fe3e009dfe37000100e00014
:1027e40015ff3200920090000100e00012ff320059
:1027f4008b86fb000d00e800000040000000440050
:10280400010878004c4090008d064400a0569800c2
:102814002879900002414000227c9800a8c09000d2
:1028240000c0400020c49800680e9000f80e90008c
:102834000281fb008001eb000c00be005cf9070084
:102844000000560081805e00102c9800212c980016
:10285400664545008b45e8009ecf15004efe3e00c0
:102864007bfe3700e24f5000f5003200e34f50008a
:10287400f1fe3a000b80fb000080440020429000ef
:1028840030419000408f8000900178001ac0b3005e
:102894000300e000ddfe32004811dd000482fb008d
:1028a4000402410013017800820f52008d013200ae
:1028b4000200e000d5fe320064804100efe897009a
:1028c4008001780010017800820f520084013200e8
:1028d400640040000200e000f9ff3a001ac0b300af
:1028e400d6fe370088189000287090006f40600072
:1028f400e24f5000500132003a013e00e14f5000d7
:102904000e0032007fa897008fb097001fb1970088
:10291400afb19700401498005114980062149800c5
:10292400731498001c4678003c7c98001980fb00c6
:10293400201c98000045eb00b4fe370011407800dd
:102944000082fb008002eb006033b800f4af9f000c
:1029540085b79f0096b79f00a7b79f007fa89700f1
:102964008fb097001fb19700afb197004014980043
:10297400511498006214980073149800e9ff37000a
:102984000ec545006ffe3700e4cf5500f400320059
:10299400e8cf5500a8fe3a008e81fb0083814400f5
:1029a40083bf9f00134590000a80fb008000eb006a
:1029b4006011b800c819dd004812de0083017200fe
:1029c4004811dd00480ade0002017200c808dd007b
:1029d4004802de00810072004800dd00b0b79f00ad
:1029e400c1b79f00d2b79f00e3b79f008fba97008b
:1029f400254090000082fb008002eb006033b800a9
:102a04008603780005037800840278000002eb0056
:102a14003fb09700cfb097005fb19700efb1970038
:102a24000400400085804800060149008781490070
:102a3400b0af9f00c1af9f00d2af9f00e3af9f0034
:102a44008fb89700114278000480fb008000eb00ef
:102a54006011b8003faa9700cfaa97005fab970018
:102a6400efab97000002420081824a0002034b0050
:102a740083834b00b4b79f00c5b79f00d6b79f00b0
:102a8400e7b79f008fba9700354290000480fb009f
:102a94008000eb006011b800c811dd00480ade00b8
:102aa400830172004809dd004802de000201720061
:102ab400c800dd000000eb003fb29700cfb29700e2
:102ac4005fb39700efb397000000420081804a0093
:102ad40002014b0083814b00b0af9f00c1af9f0048
:102ae400d2af9f00e3af9f008fba9700454290009a
:102af4000480fb008000eb006011b8000001be0000
:102b04006000b8003faa9700cfaa97005fab970078
:102b1400efab97000000420081804a0002014b00a5
:102b240083814b00b0b79f00c1b79f00d2b79f000d
:102b3400e3b79f008fba9700554290000480fb00d2
:102b44008000eb006011b800c809dd004802de0017
:102b5400830172004801dd006000b8003fb29700b5
:102b6400cfb297005fb39700efb397000000420025
:102b740081804a0002014b0083814b00b0af9f006b
:102b8400c1af9f00d2af9f00e3af9f008fba970001
:102b9400654290000480fb008000eb006011b800e7
:102ba400800178000001eb006000b8003faa9700a4
:102bb400cfaa97005fab9700efab970000004200ed
:102bc40081804a0002014b0083814b00b0b79f0013
:102bd400c1b79f00d2b79f00e3b79f008fba970099
:102be400754290000480fb008000eb006011b80087
:102bf400c801dd000001eb006000b8003fb297009f
:102c0400cfb297005fb39700efb397000000420084
:102c140081804a0002014b0083814b00001498001c
:102c2400111498002214980033149800befd370044
:102c34006bc0b30050002000410020008afd370023
:102c44000b80fb0000804400204290003041900043
:102c5400408f8000900178001ac0b3000300e000a8
:102c6400eafd32004811dd000482fb000402410049
:102c740013017800820f5200900032000200e0003d
:102c8400e2fd320064804100efe8970080017800a3
:102c940010017800820f5200870032006400400067
:102ca4000200e000f9ff3a001ac0b300e3fd370068
:102cb4008b80fb008180440001017800b2437800de
:102cc40012437800a1419000b1409000458f8000ec
:102cd40015017800004578000200e000cbfd3200c9
:102ce400c808dd008381fb008381400092007800e6
:102cf400818f5100850032000100e000c3fd3200e5
:102d0400640041000001780090007800818f510038
:102d14007e003200640040000100e000f9ff3a0048
:102d24001ac0b300c5fd37008e81fb000382440046
:102d34008401e8009381fb00c819dd001482fb00c4
:102d4400048241008002eb006033b8000414980050
:102d540015149800261498003714980072fd370053
:102d64008e81fb00838144000302e8001482fb008f
:102d74008002eb00482bdd00c823de0087037300cc
:102d84004823dd000382e8001482fb008002eb008c
:102d9400c022dd00040020000603420087834a00ad
:102da4001382fb008002eb000603420087834a0083
:102db400e38141001382fb008002eb00c822dd00a6
:102dc400040020000602420087824a006033b800f3
:102dd40004149800151498002614980037149800c9
:102de40051fd3700e44f500023003200e84f5000fb
:102df400c4fe3a0011027800910290002103900071
:102e0400b1039000f4af9f0085b79f0096b79f0071
:102e1400a7b79f007fa897008fb097001fb19700b6
:102e2400afb19700401498005114980062149800b0
:102e340073149800bbfe3700110078006102b800db
:102e44006033b800f4af9f0085b79f0096b79f002a
:102e5400a7b79f007fa897008fb097001fb1970076
:102e6400afb1970040149800511498006214980070
:102e740073149800abfe37001102780091029000a1
:102e84006033b800f4af9f0085b79f0096b79f00ea
:102e9400a7b79f007fa897008fb097001fb1970036
:102ea400afb1970040149800511498006214980030
:102eb400731498009bfe3700e1ef9f001ac0b30023
:102ec4000200e00051fd3200130090000000e00019
:102ed4004efd3200001c98006feb970001fd370097
:102ee400e1ef9f001ac0b3000200e00047fd32008a
:102ef400130090000000e00044fd32001000780050
:102f0400001c98006feb9700f6fc37001ac0b30062
:102f14000100e0003dfd3200120290000400e000d8
:102f24003afd320094017800150190009200780077
:102f3400818f51000c0032000100e00033fd3200ab
:102f44006c0041000001780090007800818f5100ee
:102f5400050032006c0040000100e000f9ff3a0077
:102f64001ac0b30035fd37001ac0b3000100e000f9
:102f740026fd32000200e00024fd3200c830dd00ee
:102f84000780fb008080400052019000040078001c
:102f940002000100001c98000000e0001bfd32004c
:102fa400a8729000e5ef9f0005437800cdfc370040
:102fb400e44f500023003200e84f500088fd3a00ef
:102fc400110278009102900021039000b103900057
:102fd400f4a79f0085af9f0096af9f00a7af9f0007
:102fe4007fa097008fa897001fa99700afa997000b
:102ff40040149800511498006214980073149800b7
:103004007ffd3700110078006102b8006033b8001a
:10301400f4a79f0085af9f0096af9f00a7af9f00c6
:103024007fa097008fa897001fa99700afa99700ca
:103034004014980051149800621498007314980076
:103044006ffd370011027800910290006033b800e0
:10305400f4a79f0085af9f0096af9f00a7af9f0086
:103064007fa097008fa897001fa99700afa997008a
:103074004014980051149800621498007314980036
:083084005ffd370000000500ac
:020000040000fa
:10308c00889fbe0000047800011c070098a89200dd
:10309c000100500020ac9a0008007800b717070018
:1030ac00080078005511070008007800781a07000e
:1030bc0008007800df180700f51b070098a892009d
:1030cc000100500030ac9a0068a09200e30f500051
:1030dc007e003a00f8a49100e58f54000d003200f8
:1030ec00788892000000e00005003a0011002000f2
:1030fc0008007800141a07000004e00005003200f4
:10310c0078889200310120000008a3000c003a00de
:10311c000500370028a891000041eb000058a300df
:10312c00120032000d003700410120000018a300ee
:10313c0003003a000028a3007a023200210120008b
:10314c00a01d20000800400038e193000204e000bc
:10315c00d3023a00ce1a0700d102370028a89100fa
:10316c000050a10020ac990012c0b300a8d093006d
:10317c000000eb000104e000020032000204a20097
:10318c000280fb0000417800589092001100200052
:10319c000008a3000300320098a09200c308de00d0
:1031ac00e18060000000eb000204e000010032004e
:1031bc000180fb00e28f54001800320005003e0035
:1031cc000900e00009003200e18f540031003a00a0
:1031dc000f003700e48f540019003200150039003d
:1031ec00e58f54002b003a0026003700a031200058
:1031fc000800400090447800bb0e07000904e00072
:10320c00bf0232000004e000d7023a00bc023700d3
:10321c000004e000ae023a00950237000004e00022
:10322c00d102320038c093000004e000c2023a0020
:10323c00a70237000004e000cb023200be023700c8
:10324c0068b8920048b99200d8b9920000015100b8
:10325c00e0815900002d20000800400090407800cb
:10326c000048eb00e00f5100e08f590035023400ac
:10327c000104e00033023a0042bc9a0053bc9a00ad
:10328c00b902370038d093000004e0009c023a00e9
:10329c00830237000040eb0030d49b007c1b0700fe
:1032ac0098a892000100500040ac9a0078a09100c0
:1032bc0000f0a7000000ea000000ea004f00de006a
:1032cc008000eb0071a4990018003700f88c920074
:1032dc0009f0a7008904ea008904ea00cf4cde005b
:1032ec000904e00007003200a01d20000800400087
:1032fc00b8e093000104e00002003a008000eb000b
:10330c00631a070068a092000000e0001b02320064
:10331c00102d2000080040001004e0004a023a0082
:10332c000904e00015023a000a0237000004e0002c
:10333c004f003200c91a0700c3fe2f002061800025
:10334c00008261001401b300e2c12000103224009d
:10335c00d1bc2a0045c22000010978000009780080
:10336c00840a780025628000058261001401b30094
:10337c0045c420000109780000097800840a78000f
:10338c0024638000848161001301b30045c62000d2
:10339c000109780000097800830a7800a031200028
:1033ac00080040000048eb00480893000000e000d3
:1033bc0002003a0010002000400c9b008044eb00ff
:1033cc0029d49b0000c1b30020e49b0039e49b008e
:1033dc00e02a2000080040006c19070000d02700ec
:1033ec00203c990040092000303c9900000120004d
:1033fc00403c990038a891006011b800028c9900eb
:10340c00138c990048889100cf80de00c000dd004d
:10341c0000002000208c9900318c99000000eb00fa
:10342c0000a4990032a4990043a4990030c49b00d5
:10343c0029c49b0049c49b0030849900801e200045
:10344c0008004000e3180700802920000800400015
:10345c0009487800a029200008004000401a070005
:10346c00002a2000080040005d1a07007d0137008b
:10347c00480893000000e0001c0032000000e90046
:10348c00400c9b0077013a00218ca900218ca800ec
:10349c00c3ff2f002061800000826100e2c1200088
:1034ac0010322400d1bc2a0045c22000010978004a
:1034bc0000097800840a780025628000058261008a
:1034cc0045c420000109780000097800840a7800be
:1034dc00246380008481610045c6200001097800c6
:1034ec0000097800830a78005e0137006c01440003
:1034fc00e12f200088804000a03020000800400010
:10350c006f16070057013700080078008f1a070064
:10351c00489092000010a00040949a00801e200059
:10352c0008004000ab18070080292000080040006c
:10353c000048eb00a029200008004000b11a070049
:10354c0028d093000004e00046013a00002a200035
:10355c00080040001a1a07004201370008007800e2
:10356c007b1707006000b800500c9800610c9800a5
:10357c006014980071149800602c9900712c9900bb
:10358c00802920000800400011c0b30001487800d9
:10359c007000200030618800306288003063880041
:1035ac00136180000390a100e2c1200010322400be
:1035bc00d1bc2a0024c2200001097800000978003f
:1035cc00030a7800136280000390a10025c4200038
:1035dc000109780000097800830a780013638000e1
:1035ec000390a10024c6200001097800000978008e
:1035fc00030a780008007800620f070038a99000d1
:10360c00e70f51000100310072002000c8a89000a3
:10361c00e78f5000010031007100200058a8900085
:10362c00e70f50000100310070002000326188006b
:10363c0031628800306388000a013700b8a8910015
:10364c0018019000cf91de00c011dd0002002000b7
:10365c00622c9900732c99006011b80032a4990067
:10366c0043a49900103b21008088b900103c9900bc
:10367c00502c990008007800420f070038a99000e0
:10368c00e70f51000100310072002000c8a8900023
:10369c00e78f5000010031007100200058a8900005
:1036ac00e70f5000010031007000200032618800eb
:1036bc003162880030638800ea0037000000eb00bc
:1036cc00502c9900f3f32f001561800005826100e6
:1036dc00e2c1200010322400d1bc2a0025c22000f7
:1036ec000109780000097800840a780015628000ce
:1036fc000582610025c420000109780000097800ca
:10370c00840a7800146380008481610025c620003f
:10371c000109780000097800830a780013618000a1
:10372c000390a00024c22000010978000009780051
:10373c00030a7800136280000390a00025c42000c7
:10374c000109780000097800830a7800136380006f
:10375c000390a00024c6200001097800000978001d
:10376c00030a7800502920003061880030628800fc
:10377c003063880028b09200a00090008100e8001f
:10378c002100980028b89200b8b8920040bc9a006a
:10379c0051bc9a001000200060bc9a0028d0930005
:1037ac000004e000af003a00002a200008004000ae
:1037bc0083190700ab0037000040eb0020d49b00be
:1037cc00f3f32f001161800001826100e2c120003f
:1037dc0010322400d1bc2a0025c220000109780037
:1037ec0000097800840a7800156280000582610067
:1037fc0025c420000109780000097800840a7800ab
:10380c00146380008481610025c6200001097800c2
:10381c0000097800830a7800136180000390a000ef
:10382c0024c220000109780000097800030a7800fe
:10383c00136280000390a00025c4200001097800c9
:10384c0000097800830a7800136380000390a000bd
:10385c0024c620000109780000097800030a7800ca
:10386c005029200030618800306288003063880065
:10387c007c00370079190700c3fe2f0025618000fa
:10388c00058261001401b300e2c120001032240053
:10389c00d1bc2a0045c2200001097800000978003b
:1038ac00840a780025628000058261001401b3004f
:1038bc0045c420000109780000097800840a7800ca
:1038cc0024638000848161001301b30045c620008d
:1038dc000109780000097800830a7800a0312000e3
:1038ec00080040000048eb00480893000000e0008e
:1038fc0002003a0010002000400c9b006000b80051
:10390c00500c9800610c9800601498007114980089
:10391c00602c9900712c99005200370048089300d4
:10392c000000e0001c0032000000e900400c9b008d
:10393c004c003a00218ca900218ca800c3ff2f0059
:10394c002061800000826100e2c12000103224005e
:10395c00d1bc2a0045c2200001097800000978007a
:10396c00840a7800256280000582610045c420002d
:10397c000109780000097800840a7800246380002b
:10398c008481610045c62000010978000009780097
:10399c00830a780033003700102d20000800400007
:1039ac000048eb002f00370098a092000158a300ac
:1039bc0002003200e20f50001900320070002000ab
:1039cc0030618800306288003063880013618000a9
:1039dc000390a100e2c1200010322400d1bc2a00c7
:1039ec0024c220000109780000097800030a78003d
:1039fc00136280000390a10025c420000109780007
:103a0c0000097800830a7800136380000390a100fa
:103a1c0024c620000109780000097800030a780008
:103a2c0008007800570e070038a99000e70f5100e6
:103a3c000100310072002000c8a89000e78f5000f0
:103a4c00010031007100200058a89000e70f5000d1
:103a5c000100310070002000326188003162880062
:103a6c00306388008a19070098a892000100500062
:103a7c0050ac9a0008007800ba16070028b09200e3
:103a8c00c0009000601a2d00808f5000050032009d
:103a9c000000eb0010a49a003100200061a49a00f1
:103aac00609c9a00689892000000e00017003200b9
:103abc004f80de00000040000000e8007899920082
:103acc0088a1920061014100e0814900729c9a003a
:103adc0003a49a00789a920088a29200789192009e
:103aec0088999200820f5200838f5a000600390089
:103afc000000ea00609c9a006000b800709c9a007c
:103b0c0001a49a0001003700609c9a00601907001c
:103b1c0098a892000100500060ac9a004f04be00bf
:103b2c00000006001100200008007800861707002e
:103b3c00010120000004e00081fd3a008000eb0050
:103b4c007ffd37006011b80042bc9a0053bc9a004c
:103b5c00470037004e19070098a89200010050004a
:103b6c0040ac9a0078a091007100200071a49900db
:103b7c00810f50008cff3a00a9ff37004419070051
:103b8c0098a892000100500040ac9a006000200000
:103b9c0070a49900f3f32f00156180000582610079
:103bac00e2c1200010322400d1bc2a0025c2200022
:103bbc000109780000097800840a780015628000f9
:103bcc000582610025c420000109780000097800f5
:103bdc00840a7800146380008481610025c620006b
:103bec000109780000097800830a780013618000cd
:103bfc000390a00024c2200001097800000978007d
:103c0c00030a7800136280000390a00025c42000f2
:103c1c000109780000097800830a7800136380009a
:103c2c000390a00024c62000010978000009780048
:103c3c00030a780050292000306188003062880027
:103c4c003063880087ff37001119070098a892008d
:103c5c000100500040ac9a0078a091008100200037
:103c6c0071a49900810f50002cff320001ff370026
:103c7c000040eb0030d49b000519070098a8920077
:103c8c000100500040ac9a0078a091001100200077
:103c9c0071a49900810f500029fe32001afe3700e2
:103cac000040eb0030d49b00f918070098a8920054
:103cbc000100500040ac9a0078a091005100200007
:103ccc0071a49900810f500066ff3200bafe3700d4
:103cdc000040eb0030d49b00ed18070098a8920030
:103cec000100500040ac9a0078a091002100200007
:103cfc0071a49900810f50003efe320017fe370070
:103d0c000040eb0030d49b00e118070098a892000b
:103d1c000100500040ac9a0078a0910000f0a70080
:103d2c000000ea000000ea004f00de008000eb001b
:103d3c0071a499007dfd37000040eb0030d49b004e
:103d4c00d318070098a892000100500040ac9a00cc
:103d5c0078a091003100200071a49900810f5000cf
:103d6c0036fe3a0043fe37000040eb0030d49b0097
:103d7c00c718070098a892000100500040ac9a00a8
:103d8c0078a091004100200071a49900810f50008f
:083d9c0082fe320049fe3700ef
:020000040000fa
:103da40021c0b30041409800b000900012c2b3009b
:103db400924098009000900001040100504190004e
:103dc400d1c2b300814f5100bb003600e2c2b30040
:103dd40042409800b00190000041eb0092419800ed
:103de400b001900054c0b300a4419800b001900009
:103df400b2419800428f8000a209900030019000e7
:103e040043419800428f8000a20990003001900045
:103e1400c819de005341980030019000d041900051
:103e2400634198003001900003c1b30073419800ce
:103e34003001900023c8b30003499800300190007a
:103e440043c4b300134998003001900053c6b30033
:103e5400234998003001900083c1e9003349980058
:103e6400b001900012c3b300c2499800b0019000a1
:103e740084c3b300d4499800b00190006642520054
:103e8400e44998003002900003c3b300734a9800d9
:103e940030029000025298003002900095c3b300a3
:103ea4001552980030029000225298003001900080
:103eb4003351980030019000e3c141004351980010
:103ec400300190008341e80053519800428f8000f4
:103ed400b20990000300e0007e0032003209900035
:103ee400b000900012417800e2509800418f8000a9
:103ef40031099000b000900012419000f2509800f7
:103f0400418f800031099000b00090002241900060
:103f140082589800418f800031099000b0009000d1
:103f24004241900092589800418f800031099000de
:103f3400b000900052419000a2589800418f800038
:103f440031099000b000900072419000b25898007e
:103f5400418f800031099000b00090000249900028
:103f6400c2589800418f800031099000b000900041
:103f740012499000d2589800418f80003109900076
:103f8400b000900022499000e2589800418f8000d0
:103f940031099000b000900032499000f258980026
:103fa400418f800031099000b00090004249900098
:103fb40082609800418f800031099000b000900029
:103fc4006249900092609800418f8000310990000e
:103fd400b000900072499000a2609800418f800068
:103fe40031019000b0009000b2609800418f8000d1
:103ff40041019000b0009000c2609800418f8000a1
:1040040041019000b00090004811de00d260980099
:10401400418f800051019000e1019000b0009000b8
:10402400e2609800418f800051019000e10190000e
:10403400b0009000481add004811de000201720051
:10404400c819de00f2609800418f80005101900091
:10405400e1019000b000900083689800418f8000d7
:1040640051019000e1019000b00090004819de0079
:1040740092689800428f8000cf91de00b0009000db
:10408400a2689800b0009000c81ade00481bdd004a
:104094004812de0004027300b4689800b000900077
:1040a400c3689800b00090004819de00d2689800f8
:1040b400900090000104010021c0b3004140980029
:1040c400b000900052c1b30092409800900090005c
:1040d400010401003001900021619800300190003a
:1040e4001161980030019000016198003001900046
:1040f4007159980030019000615998003001900086
:1041040051599800300190004159980030019000b5
:1041140031599800300190002159980030019000e5
:104124001159980030019000015998003001900015
:10413400715198003001900061519800418f8000c6
:1041440031019000b0009000b2609800418f80006f
:1041540041019000b0009000c2609800418f80003f
:1041640041019000b00090004811de00d260980038
:10417400418f800051019000e1019000b000900057
:10418400e2609800418f800051019000e1019000ad
:10419400b0009000481add004811de0002017200f0
:1041a400c819de00f2609800418f80005101900030
:1041b400e1019000b000900083689800418f800076
:1041c40051019000e1019000b00090004819de0018
:1041d40092689800428f8000cf91de00b00090007a
:1041e400a2689800b0009000c81ade00481bdd00e9
:1041f4004812de0004027300b4689800b000900016
:10420400c3689800b00090004819de00d268980096
:104214009000900001040100881f780000047800d9
:10422400b800900021429000810378005740780044
:10423400428f8000920278000500e000880032007e
:104244004822dd000080fb00000242009501780056
:10425400830f5200130032000300e0000800320014
:10426400648042008002780090017800830f52003d
:104274000c003200640040000300e000f9ff3a0043
:1042840000c4b30021c0b30041449800804b7800bf
:104294009800900008007800010001004f047800a5
:1042a400000006000300e000f5ff32001500900056
:1042b400a20190000300e0001a003200a202900064
:1042c4008001eb00950f120012003200a202900050
:1042d400430020001500e00074003200a2029000a8
:1042e40083824200950f12000a003200a20290005d
:1042f40064834100838242001500e000050032001f
:1043040086017800a202900083824200950f120079
:10431400f6ff3a0022029000030242001400e0007b
:104324003b003a00920190000300e0006500320077
:1043340010037800120290008001eb00940f130028
:1043440012003200120290001400e0000f0032004c
:10435400c30020001202900003024200940f1300d5
:104364000a00320012029000ec8241000302420073
:104374001400e0000500320085017800120290006c
:1043840003024200940f1300f6ff3a001202900059
:10439400030242001400e0001300320012019000f6
:1043a400830141004841900063415100e380400093
:1043b400c3019000030001000004e00030003a0053
:1043c40021c0b30041449800b80090009040980088
:1043d4009800900008007800010001004f04780064
:1043e40000000600afff370020c0b300404498002f
:1043f40010c4b300804b7800980090000800780047
:10440400010001004f04780000000600a5ff3700fa
:104414002201900083014100484190006341510012
:10442400e380400093019000030001000004e000d9
:104434009aff320020c0b300404498003800900036
:1044440021c4b3001140980098009000080078003f
:10445400010001004f0478000000060091ff3700be
:1044640030c4b30021c0b30041449800804b7800ad
:1044740098009000080078000100010087ff3700d1
:1044840020c0b300404498003800900041c1b300fc
:104494001140980098009000080078000100010085
:1044a4004f047800000006007eff37008001eb0017
:1044b40022029000030242001400e00099ff32003f
:1044c400d3ff370020c0b3004044980040c4b30079
:1044d400804b7800980090000800780001000100eb
:1044e4004f047800000006006eff3700881f780034
:1044f40000047800380390008680e8009142780038
:1045040056407800438f8000130278000400e000d6
:1045140053003200c82add000080fb008082420084
:1045240014017800828f5200130032000200e00070
:104534000800320064004200000278001001780094
:10454400828f52000c003200640040000200e00040
:10455400f9ff3a0000c4b30021c0b30041449800fd
:10456400004b7800980090000800780001000100da
:104574004f047800000006000200e000f5ff32005e
:1045840014009000130190000200e0003c0032008f
:1045940090037800130290000001eb00948f130045
:1045a40012003200130290001400e0000f003200e9
:1045b400c20020001302900002024200948f1300f4
:1045c4000a00320013029000ec0241000202420091
:1045d4001400e00005003200050178001302900089
:1045e40002024200948f1300f6ff3a001302900077
:1045f400020242001400e0000f0032009301900018
:1046040002814100320190000200010000c0e80074
:1046140040449800380090008040eb00114098001e
:104624009800900008007800010001004f04780011
:1046340000000600d0ff370020c0b30040449800bb
:1046440010c4b300004b7800980090000800780074
:10465400010001004f04780000000600c6ff370087
:1046640030c4b30021c0b30041449800004b78002b
:10467400980090000800780001000100bcff37009a
:1046840020c0b3004044980040c4b300004b7800fd
:104694009800900008007800010001004f047800a1
:1046a40000000600b4ff3700b000900051417800cc
:1046b400e24f5100380032000c003600e44f510044
:1046c4003f0032001e00310033002000428f800082
:1046d400330198000041eb008248780021c0b30008
:1046e4004140980090009000010401000204e000a1
:1046f4000a003a008001eb00428f800033019800e9
:104704000041eb008248780021c0b300414098008a
:104714009000900001040100f4ff3700e14f5100c4
:104724001300320022c2b3008248780021c0b300d3
:10473400414098009000900001040100ebff370015
:10474400e54f5100f7ff3a0053002000428f8000ec
:10475400330198000041eb008248780021c0b30087
:10476400414098009000900001040100dfff3700f1
:1047740013002000428f8000330198000041eb00b9
:104784008248780021c0b300414098009000900016
:1047940001040100d5ff370023002000428f800070
:1047a400330198000041eb008248780021c0b30037
:1047b400414098009000900001040100cbff3700b5
:1047c40043002000428f8000330198000041eb0039
:1047d4008248780021c0b3004140980090009000c6
:1047e40001040100c1ff3700b00090000041eb005c
:1047f40092409800418f800031019000b0009000f9
:10480400a240980031c0b30041409800900090004d
:104814000104010022c0b30042409800300190001e
:10482400114198009000900001040100211721001b
:10483400630320008181410022ed21008228780059
:10484400838f5000fdff3a0041172100410098007a
:10485400000006004000900001ee210001087800ed
:10486400613f220011009800613522002100980068
:10487400e1102200211098008127220011109800d5
:104884000000060011002000110898008000eb00d1
:104894000108980000000600e4874700889fbe00d6
:1048a4008a9fbe008c9fbe008e1f78000004780093
:1048b400980c90005ac5b3003b002000e18f5400cf
:1048c40015003a0058009000b0009000010001006b
:1048d4000004e0002300320008089000e20f5000ba
:1048e4000801320058003e000000e000a0003a0039
:1048f4004a549800505498005800900010017800d1
:104904008a40780002000100090c9800980c90007d
:10491400e18f5400ebff32000900e00014003a007c
:1049240058009000a0009000010001000004e00085
:104934000f00320058009000900090000100010028
:10494400f8009000e28f5000b800320017003e00db
:104954000100e00064003a0051c5b300814f5000eb
:104964001c013200980c90000900e000ecff3200ba
:104974006a064400408f8000c00890000100e000f7
:1049840004003200c0089000a1189000e48f500089
:104994004e0132004f0778004f06be004f05be009f
:1049a4004f04be004f00b10000000600e48f500029
:1049b4008100320086003900e58f50000400320087
:1049c4000000eb0070049800980c9000e6ff37009c
:1049d400c850900052c5b30082cf5000110032007d
:1049e400e2cf50000f003200814f500011003a0016
:1049f4003800900010407800fa4f5000fa003e0052
:104a04000080fb00c80090000000400000804000cf
:104a1400900078000800780001000100980c9000d4
:104a2400d1ff370081c0ea0041549800814f500003
:104a3400efff320031c1b3000800780075ff0700b2
:104a4400980c9000c8ff3700e40f50008600320035
:104a54008d003900e50f5000050032000000eb0026
:104a6400100c9800700498008004eb00acff370031
:104a7400c850900050c5b30080cf50000d003200e4
:104a8400e2cf50000b003200580090001001780073
:104a94000200010058009000d000900001000100c5
:104aa4000000eb00100c9800700498008004eb00e8
:104ab4009bff370081c0ea004154980058009000e1
:104ac400100178000200010058009000d00090000e
:104ad400010001000000eb00100c98007004980025
:104ae4008004eb008eff3700e18f5000b4ff3a00e2
:104af4000004e0001b003200d8409000814f5000b9
:104b0400de003e0052c5b30082404000415498008c
:104b140040449800595498002100200071049800e2
:104b240082407800814f500002003200e24f500072
:104b34008cff3a00d4f1b70020002000508f880089
:104b44004000200070049800980c900086ff370005
:104b540051c5b300421d210012417800814f51001c
:104b6400ce00320079049800980c90007eff370044
:104b7400e10f5000b9ff3a00c8409000485090003f
:104b84000140400040549800580090001001780003
:104b940002000100484090008a4f50008600320015
:104ba400e24f50008400320020002000000c9800e6
:104bb400980c900041ff37000004e000e4ff3a0045
:104bc400508f800070049800980c900066ff3700a6
:104bd400c850900080c0400041549800d8509000c4
:104be4008180fb00380190008100410080487800fa
:104bf400d85090008140e8005154980048419000fa
:104c040082cf50004e00390051c5b300814f50008f
:104c14007a003200e24f5000780032005000200049
:104c240070049800980c90004fff3700c84890001b
:104c340080cf5000cbff3a00485090000140400024
:104c44004054980050c5b30080cf50008300320018
:104c5400e2cf500081003200300020007004980040
:104c6400980c900040ff3700580090001001780025
:104c74008040eb0002000100508f8000000c98007f
:104c8400980c90000dff3700d85090008180fb00f5
:104c940038009000810040004850900011404000ce
:104ca400405498005800900010017800914078001a
:104cb40002000100d85090000180fb008001e80050
:104cc400484190000281fb00828f5100280035008a
:104cd4003801900000004100104078008a4f5000d5
:104ce40055003200e24f50005300320050002000c3
:104cf400000c98008140e80051549800980c9000f2
:104d0400eefe3700c8489000485090000140400033
:104d140040549800580090001001780002000100ef
:104d2400484890008a4f50001d003200e24f500066
:104d34001b0032000b0c9800980c9000dffe37002b
:104d440051c5b300814f500002003200e24f5000c1
:104d5400c1ff3a00d4f1b70030002000508f880022
:104d64004000200070049800980c9000fefe37006c
:104d74003801900000004100104078008a4f500034
:104d840025003200e24f5000230032000b0c980043
:104d94008140e80051549800980c9000c7fe3700f9
:104da400d4f1b7005b8f880040002000000c98000d
:104db400980c9000c1fe3700d4f1b7002000200009
:104dc400508f880040002000000c9800980c900040
:104dd400bafe370040549800100020007004980078
:104de400980c9000e0fe370011c2b3000800780070
:104df40088fe0700980c9000dbfe3700d4f1b70062
:104e040050002000508f880040002000700498005b
:104e1400980c9000d4fe3700d4f1b7005b8f880063
:104e240040002000000c98008140e8005154980094
:104e3400980c9000a1fe3700d4f1b7005000200078
:104e4400508f880040002000000c98008140e8004a
:104e540051549800980c900098fe3700401d210092
:104e64000148780030002000508f88004000200066
:104e740070049800980c9000bbfe370079049800e9
:104e8400380090000048eb0051c1b30008007800de
:104e940060fe0700980c9000b3fe3700d8409000e5
:104ea400814f5000f5ff3e0052c5b30082404000e0
:104eb4004154980040449800595498002000200020
:104ec40070049800980c9000a7fe370040089000ea
:104ed400a0c490008984fb00e3844400580090003f
:104ee400c0009000010001000080fb00808f54008e
:104ef40007003d00408f800040099000c0089000ea
:104f040072199000e1189000810f51000d003100da
:104f1400b08e8000c18e800061004000e0804800b7
:104f2400b08e8800c18e88004f0778004f06be00ff
:104f34004f05be004f04be004f00b1000000060044
:104f44009afe3700400890008000eb00711898002a
:104f5400580090001001780021c0b3000200010045
:104f640058009000418f8000c1089000a1c09000bb
:104f7400100178000200010058009000c848900019
:104f8400100178000200010058009000418f800059
:104f9400c1089000812090001001780002000100f7
:104fa40058009000418f8000c1089000812090003b
:104fb400c808de001001780002000100408f800064
:104fc400c0099000c00890004009900023c29000de
:104fd400c84990008341420083c1e80081209000c9
:104fe40081c0410092c5900081c545000007eb00d7
:104ff4008004eb008e00e80081bf9f007207470029
:1050040081864000400890000d004000108044005c
:10501400104578001c007800100178008a40780060
:10502400020001008ac545008904e800408f800021
:10503400c00890008e8040009180fb00818f540056
:10504400f0ff39000fbf9700c0089000b1789000be
:105054008180fb00810f5700e5ff3900e2cf550046
:105064000b00320058009000100178008b4078004b
:10507400020001004f0778004f06be004f05be0036
:105084004f04be004f00b1000000060047fe370089
:10509400dbcfb30058009000100178008b407800fb
:1050a40002000100f3ff37003100980052409800dd
:1050b40043489800e144220001087800414422005a
:1050c400110098008000eb0011089800710098000e
:0450d40000000600d2
:020000040000fa
:1050d800889fbe008a9fbe008c9fbe008e1f7800ee
:1050e80000077800310a900004a2b90004024200c7
:1050f80085824a000501780002f0a7000281ea00d3
:10510800410b900006b3b9000603430087834b00a8
:105118000702780004f0a7000482ea0002014200b6
:10512800122f98005e239000ee239000ce2190006d
:105138000392b9000402430085824b007e2390004d
:1051480003b3b9000602520087825a005427980018
:10515800652798004128dd004f21de00020170001c
:1051680002037800722798000e2a900004a2b90062
:105178000402420085824a000501780002f0a70077
:105188000281ea00820f5300120034002e29900099
:10519800be29900061014100e0814900222f98005a
:1051a800332f98004e2a9000de2a9000840f510079
:1051b800858f59000a0039006011b800222f980025
:1051c800332f98004e9190000200a000429798005b
:1051d800060037006011b800222f9800332f98007e
:1051e8004e9190000200a1004297980001a1910001
:1051f800e10f51009f013200e30f51009d01320081
:10520800e40f51009b01320031b19200e20f5100ce
:105218001b003a006e2990009e0f110018003d00f7
:105228001200200003002000722f98000337980016
:105238003e319000ce31900061014100e08149008b
:1052480032379800433798005e329000ee32900073
:10525800840f5100858f5900220036006011b80074
:105268003237980043379800722f98000337980018
:105278004e9190000230a000429798001c00370021
:105288003e319000ce319000e00f5100e08f590080
:105298001400320061014100e08149003237980072
:1052a800433798007e2990008e31900061014100bb
:1052b800e0814900722f9800033798001e32900051
:1052c800ae329000840f5100858f590005003600da
:1052d8006011b8003237980043379800722f980051
:1052e800033798004e9190000230a1004297980031
:1052f8009e0278001e1b9000ae1b9000fe119000cd
:1053080003bcb9000803530089835b0003adb900ef
:105318000601450087814d00121f9800231f980041
:1053280003037800850178004fb1de0002f0a20087
:10533800868151004240af0082017800031f980027
:105348001e0290005e1b9000ee1b90003e1990001c
:1053580002bcb9000804530089845b0002a6b900a6
:105368000804460089844e00581f9800691f980059
:10537800040178004fccde0008f0a20009015100ba
:105388004240af0008017800421f9800039cb90012
:105398000804440089844c008901780003f0a700c0
:1053a8008381ea000294b9000804440089844c000f
:1053b8000901780002f0a7000281ea000e149000ab
:1053c8009e14900003014100fe0b90000791b90064
:1053d8000201440083814c002e14900007c4b900d8
:1053e8000803510089835900061798001717980079
:1053f800413cdd004f31de000201740022179800a5
:1054080005abb9000603430087834b00070178000a
:1054180002f0a7000281ea0004a2b90004024200d7
:1054280085824a008501780003f0a7008381ea009d
:105438000e0b90009e0b900002814100fe0290002e
:105448000591b9000201430083814b002e0b9000a7
:1054580005b3b9000602510087825900040f98006d
:10546800150f98004128dd004f21de000201700071
:10547800220f980071a19100e30f5100b7003a0084
:10548800f1a8900001f0a7008100ea0001f0a70050
:105498008180ea007e319000828f500018003d0024
:1054a8001200200003002000023f9800133f9800dc
:1054b8004e399000de39900061014100e0814900d9
:1054c800423f9800533f98006e3a9000fe3a900091
:1054d800840f5100858f5900220036006011b800f2
:1054e800423f9800533f9800023f9800133f9800ae
:1054f800ce9090000120a000419798001c00370032
:105508004e399000de399000e00f5100e08f5900cd
:105518001400320061014100e0814900423f9800d7
:10552800533f98000e3990009e3990006101410068
:10553800e0814900023f9800133f98002e3a9000fe
:10554800be3a9000840f5100858f5900050036003f
:105558006011b800423f9800533f9800023f9800fe
:10556800133f9800ce9090000120a1004197980029
:10557800ee00900001f0a7008180ea002e899000db
:10558800828f500057003d002e02900004a2b900ff
:105598000402420085824a000501780002f0a70053
:1055a8000281ea003e03900006b3b90006034300f7
:1055b80087834b008701780003f0a7008381ea0006
:1055c800028541000a8798004e0190000291b900b7
:1055d800020141008381490003f0a7008381ea00aa
:1055e8005e03900006b3b9000603430087834b00af
:1055f8000702780004f0a7000482ea0003044200ce
:10560800188798002e9190000191b900020141007d
:10561800838149001e9290000302420001a2b90052
:105628000402420085824a000e9290000501420061
:10563800528f98000a92b9000402420085824a00fb
:1056480005017800658f98003e8b900001b3b90082
:105658000603430087834b00478f980008bab900b8
:105668000403420085834a00778f9800828f530095
:105678001c003400110009000710d900000178004f
